:020000040000FA
:020000002628B0
:080008000C1C09000C103C3037
:100010008F00B0308E00A00B09000F30A000A30AA3
:100020000A302302031D1528192823086820A1007F
:100030000900A3013F30A1000311A40A06302402E5
:100040000319262824086820A20009008316031338
:1000500006309F0083160313860185018312031364
:100060008601850183120313C0308B0083120313B2
:10007000831603130C1483160313831203130C103B
:10008000831203138312031311309000831203139E
:10009000831203133C308F00B0308E00A0010F306C
:1000A000A0003F30A1003F30A20083120313A30140
:1000B000A4010130850021088600732002308500EC
:1000C000063024020319A40122088600732059284F
:1000D00082073F3406345B344F3466346D347D34EC
:1000E00007347F346F34AA309900990B75280800C3
:02400E00313F40
:00000001FF
